{
  "contractName": "SmartCredit",
  "abi": [
    {
      "constant": true,
      "inputs": [],
      "name": "applicantCount",
      "outputs": [
        {
          "name": "",
          "type": "uint256"
        }
      ],
      "payable": false,
      "stateMutability": "view",
      "type": "function"
    },
    {
      "constant": true,
      "inputs": [
        {
          "name": "",
          "type": "uint256"
        }
      ],
      "name": "applicants",
      "outputs": [
        {
          "name": "id",
          "type": "uint256"
        },
        {
          "name": "walletAddress",
          "type": "address"
        },
        {
          "name": "status",
          "type": "uint8"
        },
        {
          "name": "approver",
          "type": "address"
        }
      ],
      "payable": false,
      "stateMutability": "view",
      "type": "function"
    },
    {
      "constant": true,
      "inputs": [],
      "name": "owner",
      "outputs": [
        {
          "name": "",
          "type": "address"
        }
      ],
      "payable": false,
      "stateMutability": "view",
      "type": "function"
    },
    {
      "constant": true,
      "inputs": [],
      "name": "buyerCount",
      "outputs": [
        {
          "name": "",
          "type": "uint256"
        }
      ],
      "payable": false,
      "stateMutability": "view",
      "type": "function"
    },
    {
      "constant": true,
      "inputs": [
        {
          "name": "",
          "type": "uint256"
        }
      ],
      "name": "buyers",
      "outputs": [
        {
          "name": "id",
          "type": "uint256"
        },
        {
          "name": "buyerWallet",
          "type": "address"
        },
        {
          "name": "creditLimit",
          "type": "uint256"
        }
      ],
      "payable": false,
      "stateMutability": "view",
      "type": "function"
    },
    {
      "constant": false,
      "inputs": [],
      "name": "apply_credit",
      "outputs": [],
      "payable": false,
      "stateMutability": "nonpayable",
      "type": "function"
    },
    {
      "constant": false,
      "inputs": [
        {
          "name": "_applicantID",
          "type": "uint256"
        },
        {
          "name": "_creditLimit",
          "type": "uint256"
        }
      ],
      "name": "approve_credit",
      "outputs": [],
      "payable": false,
      "stateMutability": "nonpayable",
      "type": "function"
    },
    {
      "constant": false,
      "inputs": [
        {
          "name": "_applicantID",
          "type": "uint256"
        },
        {
          "name": "_creditLimit",
          "type": "uint256"
        }
      ],
      "name": "reject_credit",
      "outputs": [],
      "payable": false,
      "stateMutability": "nonpayable",
      "type": "function"
    },
    {
      "constant": false,
      "inputs": [
        {
          "name": "_buyerID",
          "type": "uint256"
        },
        {
          "name": "_invoiceID",
          "type": "uint256"
        },
        {
          "name": "_invoiceAmount",
          "type": "uint256"
        }
      ],
      "name": "add_invoice",
      "outputs": [],
      "payable": false,
      "stateMutability": "nonpayable",
      "type": "function"
    },
    {
      "constant": false,
      "inputs": [
        {
          "name": "_buyerID",
          "type": "uint256"
        },
        {
          "name": "_invoiceAmount",
          "type": "uint256"
        }
      ],
      "name": "remove_invoice",
      "outputs": [],
      "payable": false,
      "stateMutability": "nonpayable",
      "type": "function"
    }
  ],
  "bytecode": "0x6080604052336000806101000a81548173ffffffffffffffffffffffffffffffffffffffff021916908373ffffffffffffffffffffffffffffffffffffffff1602179055506000600155600060035534801561005a57600080fd5b50610c698061006a6000396000f3fe608060405234801561001057600080fd5b506004361061009e5760003560e01c80638da5cb5b116100665780638da5cb5b146101365780639402e6bf146101545780639adc5c94146101705780639e0cea051461018c578063f2aa8218146101aa5761009e565b806318f53993146100a357806363de5323146100c15780636b3f692c146100f457806370578b00146101105780637c1ad82d1461011a575b600080fd5b6100ab6101dc565b6040516100b89190610b02565b60405180910390f35b6100db60048036036100d69190810190610920565b6101e2565b6040516100eb9493929190610b1d565b60405180910390f35b61010e60048036036101099190810190610949565b61025f565b005b610118610333565b005b610134600480360361012f9190810190610985565b610439565b005b61013e6105a9565b60405161014b9190610aa7565b60405180910390f35b61016e60048036036101699190810190610949565b6105ce565b005b61018a60048036036101859190810190610949565b6106ea565b005b610194610834565b6040516101a19190610b02565b60405180910390f35b6101c460048036036101bf9190810190610920565b61083a565b6040516101d393929190610b62565b60405180910390f35b60035481565b60046020528060005260406000206000915090508060000154908060010160009054906101000a900473ffffffffffffffffffffffffffffffffffffffff16908060010160149054906101000a900460ff16908060020160009054906101000a900473ffffffffffffffffffffffffffffffffffffffff16905084565b6002600083815260200190815260200160002060010160009054906101000a900473ffffffffffffffffffffffffffffffffffffffff168073ffffffffffffffffffffffffffffffffffffffff163373ffffffffffffffffffffffffffffffffffffffff1614610304576040517f08c379a00000000000000000000000000000000000000000000000000000000081526004016102fb90610ae2565b60405180910390fd5b600060026000858152602001908152602001600020905082816002016000828254019250508190555050505050565b600360008154809291906001019190505550600060046000600354815260200190815260200160002090506003548160000181905550338160010160006101000a81548173ffffffffffffffffffffffffffffffffffffffff021916908373ffffffffffffffffffffffffffffffffffffffff16021790555060008160010160146101000a81548160ff021916908360028111156103cd57fe5b02179055506000809054906101000a900473ffffffffffffffffffffffffffffffffffffffff168160020160006101000a81548173ffffffffffffffffffffffffffffffffffffffff021916908373ffffffffffffffffffffffffffffffffffffffff16021790555050565b6002600084815260200190815260200160002060010160009054906101000a900473ffffffffffffffffffffffffffffffffffffffff168073ffffffffffffffffffffffffffffffffffffffff163373ffffffffffffffffffffffffffffffffffffffff16146104de576040517f08c379a00000000000000000000000000000000000000000000000000000000081526004016104d590610ae2565b60405180910390fd5b81600260008681526020019081526020016000206002015403600081121561053b576040517f08c379a000000000000000000000000000000000000000000000000000000000815260040161053290610ac2565b60405180910390fd5b600060026000878152602001908152602001600020905060015486111561056157600080fd5b80600301859080600181540180825580915050906001820390600052602060002001600090919290919091505550838160020160008282540392505081905550505050505050565b6000809054906101000a900473ffffffffffffffffffffffffffffffffffffffff1681565b6004600083815260200190815260200160002060020160009054906101000a900473ffffffffffffffffffffffffffffffffffffffff168073ffffffffffffffffffffffffffffffffffffffff163373ffffffffffffffffffffffffffffffffffffffff1614610673576040517f08c379a000000000000000000000000000000000000000000000000000000000815260040161066a90610ae2565b60405180910390fd5b60006004600085815260200190815260200160002090506000600281111561069757fe5b8160010160149054906101000a900460ff1660028111156106b457fe5b146106be57600080fd5b60018160010160146101000a81548160ff021916908360028111156106df57fe5b021790555050505050565b6004600083815260200190815260200160002060020160009054906101000a900473ffffffffffffffffffffffffffffffffffffffff168073ffffffffffffffffffffffffffffffffffffffff163373ffffffffffffffffffffffffffffffffffffffff161461078f576040517f08c379a000000000000000000000000000000000000000000000000000000000815260040161078690610ae2565b60405180910390fd5b6000600460008581526020019081526020016000209050600060028111156107b357fe5b8160010160149054906101000a900460ff1660028111156107d057fe5b146107da57600080fd5b60028160010160146101000a81548160ff021916908360028111156107fb57fe5b021790555061082e8160010160009054906101000a900473ffffffffffffffffffffffffffffffffffffffff1684610884565b50505050565b60015481565b60026020528060005260406000206000915090508060000154908060010160009054906101000a900473ffffffffffffffffffffffffffffffffffffffff16908060020154905083565b600160008154809291906001019190505550600060026000600154815260200190815260200160002090506001548160000181905550828160010160006101000a81548173ffffffffffffffffffffffffffffffffffffffff021916908373ffffffffffffffffffffffffffffffffffffffff160217905550818160020181905550505050565b60008135905061091a81610c18565b92915050565b60006020828403121561093257600080fd5b60006109408482850161090b565b91505092915050565b6000806040838503121561095c57600080fd5b600061096a8582860161090b565b925050602061097b8582860161090b565b9150509250929050565b60008060006060848603121561099a57600080fd5b60006109a88682870161090b565b93505060206109b98682870161090b565b92505060406109ca8682870161090b565b9150509250925092565b6109dd81610baa565b82525050565b6109ec81610bf9565b82525050565b60006109ff602b83610b99565b91507f496e73756666696369656e742063726564697420746f20637265617465206d6f60008301527f726520696e766f6963652e0000000000000000000000000000000000000000006020830152604082019050919050565b6000610a65601683610b99565b91507f53656e646572206e6f7420617574686f72697a65642e000000000000000000006000830152602082019050919050565b610aa181610bef565b82525050565b6000602082019050610abc60008301846109d4565b92915050565b60006020820190508181036000830152610adb816109f2565b9050919050565b60006020820190508181036000830152610afb81610a58565b9050919050565b6000602082019050610b176000830184610a98565b92915050565b6000608082019050610b326000830187610a98565b610b3f60208301866109d4565b610b4c60408301856109e3565b610b5960608301846109d4565b95945050505050565b6000606082019050610b776000830186610a98565b610b8460208301856109d4565b610b916040830184610a98565b949350505050565b600082825260208201905092915050565b6000610bb582610bcf565b9050919050565b6000819050610bca82610c0b565b919050565b600073ffffffffffffffffffffffffffffffffffffffff82169050919050565b6000819050919050565b6000610c0482610bbc565b9050919050565b60038110610c1557fe5b50565b610c2181610bef565b8114610c2c57600080fd5b5056fea265627a7a72305820d71883bd7fd0dc8e2fa9e14f445eaf792eb918e7965d171a80c3e91ffc7ccdfb6c6578706572696d656e74616cf50037",
  "source": "pragma solidity ^0.5.0;\r\npragma experimental ABIEncoderV2;\r\n\r\ncontract SmartCredit{\r\n\r\n\taddress public owner = msg.sender; // Used to ensure that approver for credit is the owner\r\n\tuint256 public buyerCount = 0;\r\n\tmapping (uint256 => Buyer) public buyers;\r\n\t\r\n\tstruct Buyer{\r\n\r\n\t\tuint256 id;\r\n\t\taddress buyerWallet;\r\n\t\tuint256 creditLimit;\r\n\t\tuint256[] invoices;\r\n\r\n\t}\r\n\r\n\tuint256 public applicantCount = 0;\r\n\tmapping (uint256 => Applicant) public applicants;\r\n\t// Applicant[] public applicants;\r\n\tenum ApplicationState {Pending, Rejected, Approved}\r\n\r\n\tstruct Applicant{\r\n\r\n\t\tuint256 id;\r\n\t\taddress walletAddress;\r\n\t\tApplicationState status;\r\n\t\taddress approver;\r\n\r\n\t}\r\n\r\n\tmodifier onlyBy(address _account)\r\n    {\r\n        require(\r\n            msg.sender == _account,\r\n            \"Sender not authorized.\"\r\n        );\r\n        _;\r\n    }\r\n\r\n    modifier sufficientCredit(int256 _remainingAmount)\r\n    {\r\n        require(\r\n            _remainingAmount >= 0,\r\n            \"Insufficient credit to create more invoice.\"\r\n        );\r\n        _;\r\n    }\r\n\r\n\tfunction add_buyer(address _walletAddress, uint256 _creditLimit) private{\r\n\t\t\r\n\t\tbuyerCount ++;\r\n\t\tBuyer storage buyer = buyers[buyerCount];\r\n\t\tbuyer.id = buyerCount;\r\n\t\tbuyer.buyerWallet = _walletAddress;\r\n\t\tbuyer.creditLimit = _creditLimit;\r\n\r\n\t}\r\n\r\n\tfunction apply_credit() public{\r\n\r\n\t\tapplicantCount ++;\r\n\t\tApplicant storage applicant = applicants[applicantCount];\r\n\t\tapplicant.id = applicantCount;\r\n\t\tapplicant.walletAddress = msg.sender;\r\n\t\tapplicant.status = ApplicationState.Pending;\r\n\t\tapplicant.approver = owner;\r\n\r\n\t\t// applicants.push(Applicant(applicantCount ,msg.sender, ApplicationState.Pending, _approver));\r\n\t\t\r\n\t}\r\n\r\n\tfunction approve_credit(uint256 _applicantID,uint256 _creditLimit) public onlyBy(applicants[_applicantID].approver){\r\n\r\n\t\tApplicant storage applicant = applicants[_applicantID];\r\n\r\n\t\trequire (applicant.status == ApplicationState.Pending);\r\n\r\n\t\tapplicant.status = ApplicationState.Approved;\r\n\t\tadd_buyer(applicant.walletAddress , _creditLimit);\r\n\r\n\t}\r\n\r\n\tfunction reject_credit(uint256 _applicantID,uint256 _creditLimit) public onlyBy(applicants[_applicantID].approver){\r\n\r\n\t\tApplicant storage applicant = applicants[_applicantID];\r\n\r\n\t\trequire (applicant.status == ApplicationState.Pending);\r\n\t\t\r\n\t\tapplicant.status = ApplicationState.Rejected;\r\n\r\n\t}\r\n\r\n\tfunction add_invoice(uint256 _buyerID, uint256 _invoiceID, uint256 _invoiceAmount) public onlyBy(buyers[_buyerID].buyerWallet) sufficientCredit(int(buyers[_buyerID].creditLimit - _invoiceAmount)){\r\n\r\n\t\tBuyer storage buyer = buyers[_buyerID];\r\n\r\n\t\trequire (_buyerID <= buyerCount);\r\n\r\n\t\tbuyer.invoices.push(_invoiceID);\r\n\t\t// Deduct credit limit\r\n\t\tbuyer.creditLimit -= _invoiceAmount;\r\n\t}\r\n\r\n\tfunction remove_invoice(uint256 _buyerID, uint256 _invoiceAmount) public onlyBy(buyers[_buyerID].buyerWallet){\r\n\r\n\t\tBuyer storage buyer = buyers[_buyerID];\r\n\t\t// buyer.invoices.push(_invoiceAddress);\r\n\t\t// Add credit limit back\r\n\t\tbuyer.creditLimit += _invoiceAmount;\r\n\r\n\t}\r\n\r\n\t// function close() public onlyBy(owner){\r\n\t// \tselfdestruct(owner);\t\r\n\t// }\r\n\r\n}",
  "sourcePath": "/Users/soonhangchye/Desktop/supplychain/src/contracts/SmartCredit.sol",
  "compiler": {
    "name": "solc",
    "version": "0.5.8+commit.23d335f2.Emscripten.clang"
  },
  "schemaVersion": "3.0.17",
  "updatedAt": "2019-11-20T05:10:31.160Z",
  "networkType": "ethereum",
  "devdoc": {
    "methods": {}
  },
  "userdoc": {
    "methods": {}
  }
}