{
  "contractName": "SmartInvoice",
  "abi": [
    {
      "constant": true,
      "inputs": [
        {
          "name": "",
          "type": "uint256"
        }
      ],
      "name": "invoices",
      "outputs": [
        {
          "name": "id",
          "type": "uint256"
        },
        {
          "name": "payer",
          "type": "address"
        },
        {
          "name": "payee",
          "type": "address"
        },
        {
          "name": "discountRate",
          "type": "uint256"
        },
        {
          "name": "advanceStatus",
          "type": "uint8"
        }
      ],
      "payable": false,
      "stateMutability": "view",
      "type": "function"
    },
    {
      "constant": false,
      "inputs": [
        {
          "name": "_invoiceID",
          "type": "uint256"
        },
        {
          "name": "_payeeAddress",
          "type": "address"
        }
      ],
      "name": "add_invoice",
      "outputs": [],
      "payable": false,
      "stateMutability": "nonpayable",
      "type": "function"
    },
    {
      "constant": false,
      "inputs": [
        {
          "name": "_invoiceID",
          "type": "uint256"
        }
      ],
      "name": "request_advance",
      "outputs": [],
      "payable": false,
      "stateMutability": "nonpayable",
      "type": "function"
    },
    {
      "constant": false,
      "inputs": [
        {
          "name": "_invoiceID",
          "type": "uint256"
        },
        {
          "name": "_discountRate",
          "type": "uint256"
        }
      ],
      "name": "approve_advance",
      "outputs": [],
      "payable": false,
      "stateMutability": "nonpayable",
      "type": "function"
    },
    {
      "constant": false,
      "inputs": [
        {
          "name": "_invoiceID",
          "type": "uint256"
        },
        {
          "name": "_invoiceAmount",
          "type": "uint256"
        }
      ],
      "name": "grant_advance",
      "outputs": [],
      "payable": true,
      "stateMutability": "payable",
      "type": "function"
    }
  ],
  "bytecode": "0x608060405234801561001057600080fd5b506108e8806100206000396000f3fe60806040526004361061004a5760003560e01c8063445ebd0f1461004f5780634e6d14051461007857806356ba1abc146100b9578063d6e3145e146100e2578063e9c0d3f4146100fe575b600080fd5b34801561005b57600080fd5b5061007660048036036100719190810190610623565b610127565b005b34801561008457600080fd5b5061009f600480360361009a91908101906105fa565b6101f7565b6040516100b09594939291906107ae565b60405180910390f35b3480156100c557600080fd5b506100e060048036036100db91908101906105fa565b61027a565b005b6100fc60048036036100f7919081019061065f565b610393565b005b34801561010a57600080fd5b506101256004803603610120919081019061065f565b6104ad565b005b60008060008481526020019081526020016000209050828160000181905550338160010160006101000a81548173ffffffffffffffffffffffffffffffffffffffff021916908373ffffffffffffffffffffffffffffffffffffffff160217905550818160020160006101000a81548173ffffffffffffffffffffffffffffffffffffffff021916908373ffffffffffffffffffffffffffffffffffffffff16021790555060008160040160006101000a81548160ff021916908360038111156101ed57fe5b0217905550505050565b60006020528060005260406000206000915090508060000154908060010160009054906101000a900473ffffffffffffffffffffffffffffffffffffffff16908060020160009054906101000a900473ffffffffffffffffffffffffffffffffffffffff16908060030154908060040160009054906101000a900460ff16905085565b60008082815260200190815260200160002060020160009054906101000a900473ffffffffffffffffffffffffffffffffffffffff168073ffffffffffffffffffffffffffffffffffffffff163373ffffffffffffffffffffffffffffffffffffffff161461031e576040517f08c379a00000000000000000000000000000000000000000000000000000000081526004016103159061078e565b60405180910390fd5b600080600084815260200190815260200160002090506000600381111561034157fe5b8160040160009054906101000a900460ff16600381111561035e57fe5b1461036857600080fd5b60018160040160006101000a81548160ff0219169083600381111561038957fe5b0217905550505050565b3381808273ffffffffffffffffffffffffffffffffffffffff163110156103ef576040517f08c379a00000000000000000000000000000000000000000000000000000000081526004016103e69061076e565b60405180910390fd5b600080600086815260200190815260200160002090506002600381111561041257fe5b8160040160009054906101000a900460ff16600381111561042f57fe5b1461043957600080fd5b60008160020160009054906101000a900473ffffffffffffffffffffffffffffffffffffffff169050338260020160006101000a81548173ffffffffffffffffffffffffffffffffffffffff021916908373ffffffffffffffffffffffffffffffffffffffff160217905550505050505050565b60008083815260200190815260200160002060010160009054906101000a900473ffffffffffffffffffffffffffffffffffffffff168073ffffffffffffffffffffffffffffffffffffffff163373ffffffffffffffffffffffffffffffffffffffff1614610551576040517f08c379a00000000000000000000000000000000000000000000000000000000081526004016105489061078e565b60405180910390fd5b600080600085815260200190815260200160002090506001600381111561057457fe5b8160040160009054906101000a900460ff16600381111561059157fe5b1461059b57600080fd5b60028160040160006101000a81548160ff021916908360038111156105bc57fe5b021790555082816003018190555050505050565b6000813590506105df81610880565b92915050565b6000813590506105f481610897565b92915050565b60006020828403121561060c57600080fd5b600061061a848285016105e5565b91505092915050565b6000806040838503121561063657600080fd5b6000610644858286016105e5565b9250506020610655858286016105d0565b9150509250929050565b6000806040838503121561067257600080fd5b6000610680858286016105e5565b9250506020610691858286016105e5565b9150509250929050565b6106a481610812565b82525050565b6106b381610861565b82525050565b60006106c6602783610801565b91507f496e73756666696369656e742063726564697420746f2070726f76696465206160008301527f6476616e63652e000000000000000000000000000000000000000000000000006020830152604082019050919050565b600061072c601683610801565b91507f53656e646572206e6f7420617574686f72697a65642e000000000000000000006000830152602082019050919050565b61076881610857565b82525050565b60006020820190508181036000830152610787816106b9565b9050919050565b600060208201905081810360008301526107a78161071f565b9050919050565b600060a0820190506107c3600083018861075f565b6107d0602083018761069b565b6107dd604083018661069b565b6107ea606083018561075f565b6107f760808301846106aa565b9695505050505050565b600082825260208201905092915050565b600061081d82610837565b9050919050565b600081905061083282610873565b919050565b600073ffffffffffffffffffffffffffffffffffffffff82169050919050565b6000819050919050565b600061086c82610824565b9050919050565b6004811061087d57fe5b50565b61088981610812565b811461089457600080fd5b50565b6108a081610857565b81146108ab57600080fd5b5056fea265627a7a72305820a4b6ac202ed37e25bc472799138a6baf31157bbfd9c30d1fbaca167c0c5d6a9d6c6578706572696d656e74616cf50037",
  "source": "pragma solidity ^0.5.0;\r\npragma experimental ABIEncoderV2;\r\n\r\ncontract SmartInvoice {\r\n\r\n\tmapping (uint256 => Invoice) public invoices;\r\n\t// enum InvoiceState {Drafted, Active};\r\n\tenum AdvanceState {NoAction, Requested, Approved, Granted}\r\n\r\n\tstruct Invoice {\r\n\t\tuint256 id;\r\n\t\t// address payable payer;\r\n\t\taddress payer;\r\n\t\t// address payable payee;\r\n\t\taddress payee;\r\n\t\tuint discountRate;\r\n\t\t// InvoiceState invoiceStatus;\r\n\t\tAdvanceState advanceStatus;\r\n\t}\r\n\r\n\tmodifier onlyBy(address _account)\r\n    {\r\n        require(\r\n            msg.sender == _account,\r\n            \"Sender not authorized.\"\r\n        );\r\n        _;\r\n    }\r\n\r\n    modifier sufficientFund(address _account, uint256 _invoiceAmount)\r\n    {\r\n        require(\r\n            _account.balance >= _invoiceAmount,\r\n            \"Insufficient credit to provide advance.\"\r\n        );\r\n        _;\r\n    }\r\n\r\n\tfunction add_invoice(uint256 _invoiceID, address _payeeAddress) public {\r\n\t\tInvoice storage invoice = invoices[_invoiceID];\r\n\t\tinvoice.id = _invoiceID;\r\n\t\tinvoice.payer = msg.sender;\r\n\t\tinvoice.payee = _payeeAddress;\r\n\t\t// invoice.invoiceStatus = InvoiceState.Drafted;\r\n\t\tinvoice.advanceStatus = AdvanceState.NoAction;\r\n\t}\r\n\r\n\tfunction request_advance(uint256 _invoiceID) public onlyBy(invoices[_invoiceID].payee){\r\n\r\n\t\tInvoice storage invoice = invoices[_invoiceID];\r\n\r\n\t\trequire ( invoice.advanceStatus == AdvanceState.NoAction);\r\n\t\t\r\n\t\tinvoice.advanceStatus = AdvanceState.Requested;\r\n\t}\r\n\r\n\tfunction approve_advance(uint256 _invoiceID, uint256 _discountRate) public onlyBy(invoices[_invoiceID].payer){\r\n\t\tInvoice storage invoice = invoices[_invoiceID];\r\n\r\n\t\trequire ( invoice.advanceStatus == AdvanceState.Requested);\r\n\r\n\t\tinvoice.advanceStatus = AdvanceState.Approved;\r\n\t\tinvoice.discountRate = _discountRate;\r\n\t}\r\n\r\n\tfunction grant_advance(uint256 _invoiceID, uint256 _invoiceAmount) public payable sufficientFund(msg.sender, _invoiceAmount){\r\n\r\n\t\tInvoice storage invoice = invoices[_invoiceID];\r\n\r\n\t\trequire ( invoice.advanceStatus == AdvanceState.Approved);\r\n\t\t\r\n\t\t// address payable payeeAddress = invoice.payee;\r\n\r\n\t\taddress payeeAddress = invoice.payee;\r\n\t\t// payeeAddress.send(_invoiceAmount);\r\n\t\tinvoice.payee = msg.sender;\r\n\t}\r\n\r\n\t// function close() public onlyBy(owner){\r\n\t// \tselfdestruct(owner);\t\r\n\t// }\t\r\n\r\n}",
  "sourcePath": "/Users/soonhangchye/Desktop/supplychain/src/contracts/SmartInvoice.sol",
  "compiler": {
    "name": "solc",
    "version": "0.5.8+commit.23d335f2.Emscripten.clang"
  },
  "schemaVersion": "3.0.17",
  "updatedAt": "2019-11-20T05:10:31.173Z",
  "networkType": "ethereum",
  "devdoc": {
    "methods": {}
  },
  "userdoc": {
    "methods": {}
  }
}